{
  "_format": "hh-sol-artifact-1",
  "contractName": "Tracking",
  "sourceName": "contracts/Tracking.sol",
  "abi": [
    {
      "inputs": [],
      "stateMutability": "nonpayable",
      "type": "constructor"
    },
    {
      "anonymous": false,
      "inputs": [
        {
          "indexed": true,
          "internalType": "address",
          "name": "sender",
          "type": "address"
        },
        {
          "indexed": true,
          "internalType": "address",
          "name": "reciever",
          "type": "address"
        },
        {
          "indexed": false,
          "internalType": "uint256",
          "name": "pickUpTime",
          "type": "uint256"
        },
        {
          "indexed": false,
          "internalType": "uint256",
          "name": "deliveryTime",
          "type": "uint256"
        },
        {
          "indexed": false,
          "internalType": "uint256",
          "name": "distance",
          "type": "uint256"
        },
        {
          "indexed": false,
          "internalType": "uint256",
          "name": "price",
          "type": "uint256"
        }
      ],
      "name": "ShipmentCreated",
      "type": "event"
    },
    {
      "anonymous": false,
      "inputs": [
        {
          "indexed": true,
          "internalType": "address",
          "name": "sender",
          "type": "address"
        },
        {
          "indexed": true,
          "internalType": "address",
          "name": "reciever",
          "type": "address"
        },
        {
          "indexed": false,
          "internalType": "uint256",
          "name": "deliveryTime",
          "type": "uint256"
        }
      ],
      "name": "ShipmentDeliverd",
      "type": "event"
    },
    {
      "anonymous": false,
      "inputs": [
        {
          "indexed": true,
          "internalType": "address",
          "name": "sender",
          "type": "address"
        },
        {
          "indexed": true,
          "internalType": "address",
          "name": "reciever",
          "type": "address"
        },
        {
          "indexed": false,
          "internalType": "uint256",
          "name": "pickUpTime",
          "type": "uint256"
        }
      ],
      "name": "ShipmentInTransit",
      "type": "event"
    },
    {
      "anonymous": false,
      "inputs": [
        {
          "indexed": true,
          "internalType": "address",
          "name": "sender",
          "type": "address"
        },
        {
          "indexed": true,
          "internalType": "address",
          "name": "reciever",
          "type": "address"
        },
        {
          "indexed": false,
          "internalType": "uint256",
          "name": "amount",
          "type": "uint256"
        }
      ],
      "name": "ShipmentPaid",
      "type": "event"
    },
    {
      "inputs": [
        {
          "internalType": "address",
          "name": "_reciever",
          "type": "address"
        },
        {
          "internalType": "uint256",
          "name": "_pickupTime",
          "type": "uint256"
        },
        {
          "internalType": "uint256",
          "name": "_distance",
          "type": "uint256"
        },
        {
          "internalType": "uint256",
          "name": "_price",
          "type": "uint256"
        }
      ],
      "name": "CreateShipment",
      "outputs": [],
      "stateMutability": "payable",
      "type": "function"
    },
    {
      "inputs": [],
      "name": "ShipmentCount",
      "outputs": [
        {
          "internalType": "uint256",
          "name": "",
          "type": "uint256"
        }
      ],
      "stateMutability": "view",
      "type": "function"
    },
    {
      "inputs": [
        {
          "internalType": "address",
          "name": "",
          "type": "address"
        },
        {
          "internalType": "uint256",
          "name": "",
          "type": "uint256"
        }
      ],
      "name": "Shipments",
      "outputs": [
        {
          "internalType": "address",
          "name": "sender",
          "type": "address"
        },
        {
          "internalType": "address",
          "name": "reciever",
          "type": "address"
        },
        {
          "internalType": "uint256",
          "name": "pickUpTime",
          "type": "uint256"
        },
        {
          "internalType": "uint256",
          "name": "deliveryTime",
          "type": "uint256"
        },
        {
          "internalType": "uint256",
          "name": "distance",
          "type": "uint256"
        },
        {
          "internalType": "uint256",
          "name": "price",
          "type": "uint256"
        },
        {
          "internalType": "enum Tracking.ShipmentStatus",
          "name": "status",
          "type": "uint8"
        },
        {
          "internalType": "bool",
          "name": "isPaid",
          "type": "bool"
        }
      ],
      "stateMutability": "view",
      "type": "function"
    },
    {
      "inputs": [
        {
          "internalType": "address",
          "name": "_sender",
          "type": "address"
        },
        {
          "internalType": "address",
          "name": "_receiver",
          "type": "address"
        },
        {
          "internalType": "uint256",
          "name": "_index",
          "type": "uint256"
        }
      ],
      "name": "completeShipment",
      "outputs": [],
      "stateMutability": "nonpayable",
      "type": "function"
    },
    {
      "inputs": [],
      "name": "getAllTransactions",
      "outputs": [
        {
          "components": [
            {
              "internalType": "address",
              "name": "sender",
              "type": "address"
            },
            {
              "internalType": "address",
              "name": "reciever",
              "type": "address"
            },
            {
              "internalType": "uint256",
              "name": "pickUpTime",
              "type": "uint256"
            },
            {
              "internalType": "uint256",
              "name": "deliveryTime",
              "type": "uint256"
            },
            {
              "internalType": "uint256",
              "name": "distance",
              "type": "uint256"
            },
            {
              "internalType": "uint256",
              "name": "price",
              "type": "uint256"
            },
            {
              "internalType": "enum Tracking.ShipmentStatus",
              "name": "status",
              "type": "uint8"
            },
            {
              "internalType": "bool",
              "name": "isPaid",
              "type": "bool"
            }
          ],
          "internalType": "struct Tracking.TypeShipment[]",
          "name": "",
          "type": "tuple[]"
        }
      ],
      "stateMutability": "view",
      "type": "function"
    },
    {
      "inputs": [
        {
          "internalType": "address",
          "name": "_sender",
          "type": "address"
        },
        {
          "internalType": "uint256",
          "name": "_index",
          "type": "uint256"
        }
      ],
      "name": "getShipment",
      "outputs": [
        {
          "internalType": "address",
          "name": "",
          "type": "address"
        },
        {
          "internalType": "address",
          "name": "",
          "type": "address"
        },
        {
          "internalType": "uint256",
          "name": "",
          "type": "uint256"
        },
        {
          "internalType": "uint256",
          "name": "",
          "type": "uint256"
        },
        {
          "internalType": "uint256",
          "name": "",
          "type": "uint256"
        },
        {
          "internalType": "uint256",
          "name": "",
          "type": "uint256"
        },
        {
          "internalType": "enum Tracking.ShipmentStatus",
          "name": "",
          "type": "uint8"
        },
        {
          "internalType": "bool",
          "name": "",
          "type": "bool"
        }
      ],
      "stateMutability": "view",
      "type": "function"
    },
    {
      "inputs": [
        {
          "internalType": "address",
          "name": "_sender",
          "type": "address"
        }
      ],
      "name": "getShipmentsCount",
      "outputs": [
        {
          "internalType": "uint256",
          "name": "",
          "type": "uint256"
        }
      ],
      "stateMutability": "view",
      "type": "function"
    },
    {
      "inputs": [
        {
          "internalType": "address",
          "name": "_sender",
          "type": "address"
        },
        {
          "internalType": "address",
          "name": "_reciever",
          "type": "address"
        },
        {
          "internalType": "uint256",
          "name": "_index",
          "type": "uint256"
        }
      ],
      "name": "startShipment",
      "outputs": [],
      "stateMutability": "nonpayable",
      "type": "function"
    }
  ],
  "bytecode": "0x608060405234801561001057600080fd5b506000600181905550611a21806100286000396000f3fe60806040526004361061007b5760003560e01c8063777639af1161004e578063777639af146101555780637ff5265d146101715780638365da541461019a5780638c76b44b146101de5761007b565b8063179a878c1461008057806327506f53146100a95780633296c4f3146100d457806341fdc19514610118575b600080fd5b34801561008c57600080fd5b506100a760048036038101906100a291906111dc565b610209565b005b3480156100b557600080fd5b506100be6105f5565b6040516100cb9190611431565b60405180910390f35b3480156100e057600080fd5b506100fb60048036038101906100f69190611453565b61077f565b60405161010f9897969594939291906114cf565b60405180910390f35b34801561012457600080fd5b5061013f600480360381019061013a919061154d565b61083e565b60405161014c919061157a565b60405180910390f35b61016f600480360381019061016a9190611595565b610889565b005b34801561017d57600080fd5b50610198600480360381019061019391906111dc565b610cf7565b005b3480156101a657600080fd5b506101c160048036038101906101bc9190611453565b610f53565b6040516101d59897969594939291906114cf565b60405180910390f35b3480156101ea57600080fd5b506101f361113d565b604051610200919061157a565b60405180910390f35b60008060008573ffffffffffffffffffffffffffffffffffffffff1673ffffffffffffffffffffffffffffffffffffffff168152602001908152602001600020828154811061025b5761025a6115fc565b5b90600052602060002090600702019050600060028381548110610281576102806115fc565b5b906000526020600020906007020190508373ffffffffffffffffffffffffffffffffffffffff168260010160009054906101000a900473ffffffffffffffffffffffffffffffffffffffff1673ffffffffffffffffffffffffffffffffffffffff1614610323576040517f08c379a000000000000000000000000000000000000000000000000000000000815260040161031a90611688565b60405180910390fd5b6001600281111561033757610336611279565b5b8260060160009054906101000a900460ff16600281111561035b5761035a611279565b5b1461039b576040517f08c379a0000000000000000000000000000000000000000000000000000000008152600401610392906116f4565b60405180910390fd5b8160060160019054906101000a900460ff16156103ed576040517f08c379a00000000000000000000000000000000000000000000000000000000081526004016103e490611760565b60405180910390fd5b600280811115610400576103ff611279565b5b8260060160009054906101000a900460ff16600281111561042457610423611279565b5b505060028081111561043957610438611279565b5b8160060160009054906101000a900460ff16600281111561045d5761045c611279565b5b50504281600301819055504282600301819055506000826005015490508260000160009054906101000a900473ffffffffffffffffffffffffffffffffffffffff1673ffffffffffffffffffffffffffffffffffffffff166108fc829081150290604051600060405180830381858888f193505050501580156104e4573d6000803e3d6000fd5b5060018360060160016101000a81548160ff02191690831515021790555060018260060160016101000a81548160ff0219169083151502179055508473ffffffffffffffffffffffffffffffffffffffff168673ffffffffffffffffffffffffffffffffffffffff167f42f7806634b6ed7278bab6408b6fa250a92160f4d662cf40ef45a6044aeadc5a8560030154604051610580919061157a565b60405180910390a38473ffffffffffffffffffffffffffffffffffffffff168673ffffffffffffffffffffffffffffffffffffffff167f2b6f2473aebafaf8d0889669490135928ec4454d2e29a103fd39693bbca6aef1836040516105e5919061157a565b60405180910390a3505050505050565b60606002805480602002602001604051908101604052809291908181526020016000905b828210156107765783829060005260206000209060070201604051806101000160405290816000820160009054906101000a900473ffffffffffffffffffffffffffffffffffffffff1673ffffffffffffffffffffffffffffffffffffffff1673ffffffffffffffffffffffffffffffffffffffff1681526020016001820160009054906101000a900473ffffffffffffffffffffffffffffffffffffffff1673ffffffffffffffffffffffffffffffffffffffff1673ffffffffffffffffffffffffffffffffffffffff168152602001600282015481526020016003820154815260200160048201548152602001600582015481526020016006820160009054906101000a900460ff16600281111561073657610735611279565b5b600281111561074857610747611279565b5b81526020016006820160019054906101000a900460ff16151515158152505081526020019060010190610619565b50505050905090565b6000602052816000526040600020818154811061079b57600080fd5b9060005260206000209060070201600091509150508060000160009054906101000a900473ffffffffffffffffffffffffffffffffffffffff16908060010160009054906101000a900473ffffffffffffffffffffffffffffffffffffffff16908060020154908060030154908060040154908060050154908060060160009054906101000a900460ff16908060060160019054906101000a900460ff16905088565b60008060008373ffffffffffffffffffffffffffffffffffffffff1673ffffffffffffffffffffffffffffffffffffffff168152602001908152602001600020805490509050919050565b8034146108cb576040517f08c379a00000000000000000000000000000000000000000000000000000000081526004016108c2906117f2565b60405180910390fd5b60006040518061010001604052803373ffffffffffffffffffffffffffffffffffffffff1681526020018673ffffffffffffffffffffffffffffffffffffffff168152602001858152602001600081526020018481526020018381526020016000600281111561093e5761093d611279565b5b81526020016000151581525090506000803373ffffffffffffffffffffffffffffffffffffffff1673ffffffffffffffffffffffffffffffffffffffff16815260200190815260200160002081908060018154018082558091505060019003906000526020600020906007020160009091909190915060008201518160000160006101000a81548173ffffffffffffffffffffffffffffffffffffffff021916908373ffffffffffffffffffffffffffffffffffffffff16021790555060208201518160010160006101000a81548173ffffffffffffffffffffffffffffffffffffffff021916908373ffffffffffffffffffffffffffffffffffffffff16021790555060408201518160020155606082015181600301556080820151816004015560a0820151816005015560c08201518160060160006101000a81548160ff02191690836002811115610a9557610a94611279565b5b021790555060e08201518160060160016101000a81548160ff021916908315150217905550505060016000815480929190610acf90611841565b919050555060026040518061010001604052803373ffffffffffffffffffffffffffffffffffffffff1681526020018773ffffffffffffffffffffffffffffffffffffffff1681526020018681526020016000815260200185815260200184815260200160006002811115610b4757610b46611279565b5b815260200160001515815250908060018154018082558091505060019003906000526020600020906007020160009091909190915060008201518160000160006101000a81548173ffffffffffffffffffffffffffffffffffffffff021916908373ffffffffffffffffffffffffffffffffffffffff16021790555060208201518160010160006101000a81548173ffffffffffffffffffffffffffffffffffffffff021916908373ffffffffffffffffffffffffffffffffffffffff16021790555060408201518160020155606082015181600301556080820151816004015560a0820151816005015560c08201518160060160006101000a81548160ff02191690836002811115610c5d57610c5c611279565b5b021790555060e08201518160060160016101000a81548160ff02191690831515021790555050508473ffffffffffffffffffffffffffffffffffffffff163373ffffffffffffffffffffffffffffffffffffffff167f2947526c14d41e26bf003d7ef7432e8c1448e669cef3671dc4d1230c541be6436000878787604051610ce894939291906118ce565b60405180910390a35050505050565b60008060008573ffffffffffffffffffffffffffffffffffffffff1673ffffffffffffffffffffffffffffffffffffffff1681526020019081526020016000208281548110610d4957610d486115fc565b5b90600052602060002090600702019050600060028381548110610d6f57610d6e6115fc565b5b906000526020600020906007020190508373ffffffffffffffffffffffffffffffffffffffff168260010160009054906101000a900473ffffffffffffffffffffffffffffffffffffffff1673ffffffffffffffffffffffffffffffffffffffff1614610e11576040517f08c379a0000000000000000000000000000000000000000000000000000000008152600401610e089061195f565b60405180910390fd5b60006002811115610e2557610e24611279565b5b8260060160009054906101000a900460ff166002811115610e4957610e48611279565b5b14610e89576040517f08c379a0000000000000000000000000000000000000000000000000000000008152600401610e80906119cb565b60405180910390fd5b60018260060160006101000a81548160ff02191690836002811115610eb157610eb0611279565b5b021790555060018160060160006101000a81548160ff02191690836002811115610ede57610edd611279565b5b02179055508373ffffffffffffffffffffffffffffffffffffffff168573ffffffffffffffffffffffffffffffffffffffff167faafab9f94340179ff9cefd29621e1772a4b8efab8023163838f1b0a8f6ce5df58460020154604051610f44919061157a565b60405180910390a35050505050565b60008060008060008060008060008060008c73ffffffffffffffffffffffffffffffffffffffff1673ffffffffffffffffffffffffffffffffffffffff1681526020019081526020016000208a81548110610fb157610fb06115fc565b5b9060005260206000209060070201604051806101000160405290816000820160009054906101000a900473ffffffffffffffffffffffffffffffffffffffff1673ffffffffffffffffffffffffffffffffffffffff1673ffffffffffffffffffffffffffffffffffffffff1681526020016001820160009054906101000a900473ffffffffffffffffffffffffffffffffffffffff1673ffffffffffffffffffffffffffffffffffffffff1673ffffffffffffffffffffffffffffffffffffffff168152602001600282015481526020016003820154815260200160048201548152602001600582015481526020016006820160009054906101000a900460ff1660028111156110c4576110c3611279565b5b60028111156110d6576110d5611279565b5b81526020016006820160019054906101000a900460ff1615151515815250509050806000015181602001518260400151836060015184608001518560a001518660c001518760e0015198509850985098509850985098509850509295985092959890939650565b60015481565b600080fd5b600073ffffffffffffffffffffffffffffffffffffffff82169050919050565b600061117382611148565b9050919050565b61118381611168565b811461118e57600080fd5b50565b6000813590506111a08161117a565b92915050565b6000819050919050565b6111b9816111a6565b81146111c457600080fd5b50565b6000813590506111d6816111b0565b92915050565b6000806000606084860312156111f5576111f4611143565b5b600061120386828701611191565b935050602061121486828701611191565b9250506040611225868287016111c7565b9150509250925092565b600081519050919050565b600082825260208201905092915050565b6000819050602082019050919050565b61126481611168565b82525050565b611273816111a6565b82525050565b7f4e487b7100000000000000000000000000000000000000000000000000000000600052602160045260246000fd5b600381106112b9576112b8611279565b5b50565b60008190506112ca826112a8565b919050565b60006112da826112bc565b9050919050565b6112ea816112cf565b82525050565b60008115159050919050565b611305816112f0565b82525050565b61010082016000820151611322600085018261125b565b506020820151611335602085018261125b565b506040820151611348604085018261126a565b50606082015161135b606085018261126a565b50608082015161136e608085018261126a565b5060a082015161138160a085018261126a565b5060c082015161139460c08501826112e1565b5060e08201516113a760e08501826112fc565b50505050565b60006113b9838361130b565b6101008301905092915050565b6000602082019050919050565b60006113de8261122f565b6113e8818561123a565b93506113f38361124b565b8060005b8381101561142457815161140b88826113ad565b9750611416836113c6565b9250506001810190506113f7565b5085935050505092915050565b6000602082019050818103600083015261144b81846113d3565b905092915050565b6000806040838503121561146a57611469611143565b5b600061147885828601611191565b9250506020611489858286016111c7565b9150509250929050565b61149c81611168565b82525050565b6114ab816111a6565b82525050565b6114ba816112cf565b82525050565b6114c9816112f0565b82525050565b6000610100820190506114e5600083018b611493565b6114f2602083018a611493565b6114ff60408301896114a2565b61150c60608301886114a2565b61151960808301876114a2565b61152660a08301866114a2565b61153360c08301856114b1565b61154060e08301846114c0565b9998505050505050505050565b60006020828403121561156357611562611143565b5b600061157184828501611191565b91505092915050565b600060208201905061158f60008301846114a2565b92915050565b600080600080608085870312156115af576115ae611143565b5b60006115bd87828801611191565b94505060206115ce878288016111c7565b93505060406115df878288016111c7565b92505060606115f0878288016111c7565b91505092959194509250565b7f4e487b7100000000000000000000000000000000000000000000000000000000600052603260045260246000fd5b600082825260208201905092915050565b7f496e76616c696420726563656976657200000000000000000000000000000000600082015250565b600061167260108361162b565b915061167d8261163c565b602082019050919050565b600060208201905081810360008301526116a181611665565b9050919050565b7f536869706d656e74206e6f7420696e207472616e736974000000000000000000600082015250565b60006116de60178361162b565b91506116e9826116a8565b602082019050919050565b6000602082019050818103600083015261170d816116d1565b9050919050565b7f536869706d656e7420616c726561647920706169640000000000000000000000600082015250565b600061174a60158361162b565b915061175582611714565b602082019050919050565b600060208201905081810360008301526117798161173d565b9050919050565b7f7061796d656e7420616d6f756e74206d757374206d617463682074686520707260008201527f6963650000000000000000000000000000000000000000000000000000000000602082015250565b60006117dc60238361162b565b91506117e782611780565b604082019050919050565b6000602082019050818103600083015261180b816117cf565b9050919050565b7f4e487b7100000000000000000000000000000000000000000000000000000000600052601160045260246000fd5b600061184c826111a6565b91507fffffffffffffffffffffffffffffffffffffffffffffffffffffffffffffffff820361187e5761187d611812565b5b600182019050919050565b6000819050919050565b6000819050919050565b60006118b86118b36118ae84611889565b611893565b6111a6565b9050919050565b6118c88161189d565b82525050565b60006080820190506118e360008301876118bf565b6118f060208301866114a2565b6118fd60408301856114a2565b61190a60608301846114a2565b95945050505050565b7f696e76616c696420726563696576657200000000000000000000000000000000600082015250565b600061194960108361162b565b915061195482611913565b602082019050919050565b600060208201905081810360008301526119788161193c565b9050919050565b7f736869706d656e7420616c726561647920696e207472616e7369740000000000600082015250565b60006119b5601b8361162b565b91506119c08261197f565b602082019050919050565b600060208201905081810360008301526119e4816119a8565b905091905056fea2646970667358221220f0bbb776467b48d08017aa186afe7ff6c6848a68320ddaa4c0bf0edd1bac730c64736f6c63430008130033",
  "linkReferences": {},
  "deployedLinkReferences": {}
}